{
  "contractName": "Lottery",
  "abi": [
    {
      "inputs": [],
      "stateMutability": "nonpayable",
      "type": "constructor"
    },
    {
      "anonymous": false,
      "inputs": [
        {
          "indexed": false,
          "internalType": "uint256",
          "name": "index",
          "type": "uint256"
        },
        {
          "indexed": true,
          "internalType": "address",
          "name": "bettor",
          "type": "address"
        },
        {
          "indexed": false,
          "internalType": "uint256",
          "name": "amount",
          "type": "uint256"
        },
        {
          "indexed": false,
          "internalType": "bytes1",
          "name": "challenges",
          "type": "bytes1"
        },
        {
          "indexed": false,
          "internalType": "uint256",
          "name": "answerBlockNumber",
          "type": "uint256"
        }
      ],
      "name": "BET",
      "type": "event"
    },
    {
      "anonymous": false,
      "inputs": [
        {
          "indexed": false,
          "internalType": "uint256",
          "name": "index",
          "type": "uint256"
        },
        {
          "indexed": false,
          "internalType": "address",
          "name": "bettor",
          "type": "address"
        },
        {
          "indexed": false,
          "internalType": "uint256",
          "name": "amount",
          "type": "uint256"
        },
        {
          "indexed": false,
          "internalType": "bytes1",
          "name": "challenges",
          "type": "bytes1"
        },
        {
          "indexed": false,
          "internalType": "bytes1",
          "name": "answer",
          "type": "bytes1"
        },
        {
          "indexed": false,
          "internalType": "uint256",
          "name": "answerBlockNumber",
          "type": "uint256"
        }
      ],
      "name": "DRAW",
      "type": "event"
    },
    {
      "anonymous": false,
      "inputs": [
        {
          "indexed": false,
          "internalType": "uint256",
          "name": "index",
          "type": "uint256"
        },
        {
          "indexed": false,
          "internalType": "address",
          "name": "bettor",
          "type": "address"
        },
        {
          "indexed": false,
          "internalType": "uint256",
          "name": "amount",
          "type": "uint256"
        },
        {
          "indexed": false,
          "internalType": "bytes1",
          "name": "challenges",
          "type": "bytes1"
        },
        {
          "indexed": false,
          "internalType": "bytes1",
          "name": "answer",
          "type": "bytes1"
        },
        {
          "indexed": false,
          "internalType": "uint256",
          "name": "answerBlockNumber",
          "type": "uint256"
        }
      ],
      "name": "FAIL",
      "type": "event"
    },
    {
      "anonymous": false,
      "inputs": [
        {
          "indexed": false,
          "internalType": "uint256",
          "name": "index",
          "type": "uint256"
        },
        {
          "indexed": false,
          "internalType": "address",
          "name": "bettor",
          "type": "address"
        },
        {
          "indexed": false,
          "internalType": "uint256",
          "name": "amount",
          "type": "uint256"
        },
        {
          "indexed": false,
          "internalType": "bytes1",
          "name": "challenges",
          "type": "bytes1"
        },
        {
          "indexed": false,
          "internalType": "uint256",
          "name": "answerBlockNumber",
          "type": "uint256"
        }
      ],
      "name": "REFUND",
      "type": "event"
    },
    {
      "anonymous": false,
      "inputs": [
        {
          "indexed": false,
          "internalType": "uint256",
          "name": "index",
          "type": "uint256"
        },
        {
          "indexed": false,
          "internalType": "address",
          "name": "bettor",
          "type": "address"
        },
        {
          "indexed": false,
          "internalType": "uint256",
          "name": "amount",
          "type": "uint256"
        },
        {
          "indexed": false,
          "internalType": "bytes1",
          "name": "challenges",
          "type": "bytes1"
        },
        {
          "indexed": false,
          "internalType": "bytes1",
          "name": "answer",
          "type": "bytes1"
        },
        {
          "indexed": false,
          "internalType": "uint256",
          "name": "answerBlockNumber",
          "type": "uint256"
        }
      ],
      "name": "WIN",
      "type": "event"
    },
    {
      "inputs": [],
      "name": "answerForTest",
      "outputs": [
        {
          "internalType": "bytes32",
          "name": "",
          "type": "bytes32"
        }
      ],
      "stateMutability": "view",
      "type": "function",
      "constant": true
    },
    {
      "inputs": [],
      "name": "owner",
      "outputs": [
        {
          "internalType": "address payable",
          "name": "",
          "type": "address"
        }
      ],
      "stateMutability": "view",
      "type": "function",
      "constant": true
    },
    {
      "inputs": [],
      "name": "getPot",
      "outputs": [
        {
          "internalType": "uint256",
          "name": "pot",
          "type": "uint256"
        }
      ],
      "stateMutability": "view",
      "type": "function",
      "constant": true
    },
    {
      "inputs": [
        {
          "internalType": "bytes1",
          "name": "challenges",
          "type": "bytes1"
        }
      ],
      "name": "betAndDistribute",
      "outputs": [
        {
          "internalType": "bool",
          "name": "result",
          "type": "bool"
        }
      ],
      "stateMutability": "payable",
      "type": "function",
      "payable": true
    },
    {
      "inputs": [
        {
          "internalType": "bytes1",
          "name": "challenges",
          "type": "bytes1"
        }
      ],
      "name": "bet",
      "outputs": [
        {
          "internalType": "bool",
          "name": "result",
          "type": "bool"
        }
      ],
      "stateMutability": "payable",
      "type": "function",
      "payable": true
    },
    {
      "inputs": [],
      "name": "distribute",
      "outputs": [],
      "stateMutability": "nonpayable",
      "type": "function"
    },
    {
      "inputs": [
        {
          "internalType": "bytes32",
          "name": "answer",
          "type": "bytes32"
        }
      ],
      "name": "setAnswerForTest",
      "outputs": [
        {
          "internalType": "bool",
          "name": "result",
          "type": "bool"
        }
      ],
      "stateMutability": "nonpayable",
      "type": "function"
    },
    {
      "inputs": [
        {
          "internalType": "bytes1",
          "name": "challenges",
          "type": "bytes1"
        },
        {
          "internalType": "bytes32",
          "name": "answer",
          "type": "bytes32"
        }
      ],
      "name": "isMatch",
      "outputs": [
        {
          "internalType": "enum Lottery.BettingResult",
          "name": "",
          "type": "uint8"
        }
      ],
      "stateMutability": "pure",
      "type": "function",
      "constant": true
    },
    {
      "inputs": [
        {
          "internalType": "uint256",
          "name": "index",
          "type": "uint256"
        }
      ],
      "name": "getBetInfo",
      "outputs": [
        {
          "internalType": "uint256",
          "name": "answerBlockNumber",
          "type": "uint256"
        },
        {
          "internalType": "address",
          "name": "bettor",
          "type": "address"
        },
        {
          "internalType": "bytes1",
          "name": "challenges",
          "type": "bytes1"
        }
      ],
      "stateMutability": "view",
      "type": "function",
      "constant": true
    }
  ],
  "bytecode": "0x60806040526000600560006101000a81548160ff02191690831515021790555034801561002b57600080fd5b5033600360006101000a81548173ffffffffffffffffffffffffffffffffffffffff021916908373ffffffffffffffffffffffffffffffffffffffff160217905550611a1a8061007c6000396000f3fe6080604052600436106100865760003560e01c80638da5cb5b116100595780638da5cb5b1461015d57806399a167d714610188578063e16ea857146101c5578063e4fc6b6d146101f5578063f4b46f5b1461020c57610086565b8063403c9fa81461008b5780637009fa36146100b657806379141f80146100f357806384f7e4f014610132575b600080fd5b34801561009757600080fd5b506100a061023c565b6040516100ad91906115a0565b60405180910390f35b3480156100c257600080fd5b506100dd60048036038101906100d89190611315565b610246565b6040516100ea91906114ef565b60405180910390f35b3480156100ff57600080fd5b5061011a6004803603810190610115919061133e565b6102e8565b604051610129939291906116d0565b60405180910390f35b34801561013e57600080fd5b506101476103e6565b604051610154919061150a565b60405180910390f35b34801561016957600080fd5b506101726103ec565b60405161017f91906114d4565b60405180910390f35b34801561019457600080fd5b506101af60048036038101906101aa91906112d9565b610412565b6040516101bc9190611525565b60405180910390f35b6101df60048036038101906101da91906112b0565b610747565b6040516101ec91906114ef565b60405180910390f35b34801561020157600080fd5b5061020a610764565b005b610226600480360381019061022191906112b0565b610dfb565b60405161023391906114ef565b60405180910390f35b6000600454905090565b6000600360009054906101000a900473ffffffffffffffffffffffffffffffffffffffff1673ffffffffffffffffffffffffffffffffffffffff163373ffffffffffffffffffffffffffffffffffffffff16146102d8576040517f08c379a00000000000000000000000000000000000000000000000000000000081526004016102cf90611540565b60405180910390fd5b8160068190555060019050919050565b60008060008060026000868152602001908152602001600020604051806060016040529081600082015481526020016001820160009054906101000a900473ffffffffffffffffffffffffffffffffffffffff1673ffffffffffffffffffffffffffffffffffffffff1673ffffffffffffffffffffffffffffffffffffffff1681526020016001820160149054906101000a900460f81b7effffffffffffffffffffffffffffffffffffffffffffffffffffffffffffff19167effffffffffffffffffffffffffffffffffffffffffffffffffffffffffffff1916815250509050806000015193508060200151925080604001519150509193909250565b60065481565b600360009054906101000a900473ffffffffffffffffffffffffffffffffffffffff1681565b6000808390506000849050600084600060208110610459577f4e487b7100000000000000000000000000000000000000000000000000000000600052603260045260246000fd5b1a60f81b905060008560006020811061049b577f4e487b7100000000000000000000000000000000000000000000000000000000600052603260045260246000fd5b1a60f81b90506004847effffffffffffffffffffffffffffffffffffffffffffffffffffffffffffff1916901c93506004847effffffffffffffffffffffffffffffffffffffffffffffffffffffffffffff1916901b93506004827effffffffffffffffffffffffffffffffffffffffffffffffffffffffffffff1916901c91506004827effffffffffffffffffffffffffffffffffffffffffffffffffffffffffffff1916901b91506004837effffffffffffffffffffffffffffffffffffffffffffffffffffffffffffff1916901b92506004837effffffffffffffffffffffffffffffffffffffffffffffffffffffffffffff1916901c92506004817effffffffffffffffffffffffffffffffffffffffffffffffffffffffffffff1916901b90506004817effffffffffffffffffffffffffffffffffffffffffffffffffffffffffffff1916901c9050837effffffffffffffffffffffffffffffffffffffffffffffffffffffffffffff1916827effffffffffffffffffffffffffffffffffffffffffffffffffffffffffffff191614801561067f5750827effffffffffffffffffffffffffffffffffffffffffffffffffffffffffffff1916817effffffffffffffffffffffffffffffffffffffffffffffffffffffffffffff1916145b15610691576001945050505050610741565b837effffffffffffffffffffffffffffffffffffffffffffffffffffffffffffff1916827effffffffffffffffffffffffffffffffffffffffffffffffffffffffffffff191614806107265750827effffffffffffffffffffffffffffffffffffffffffffffffffffffffffffff1916817effffffffffffffffffffffffffffffffffffffffffffffffffffffffffffff1916145b15610738576002945050505050610741565b60009450505050505b92915050565b600061075282610dfb565b5061075b610764565b60019050919050565b60008061076f611218565b60008060015494505b600054851015610ded5760026000868152602001908152602001600020604051806060016040529081600082015481526020016001820160009054906101000a900473ffffffffffffffffffffffffffffffffffffffff1673ffffffffffffffffffffffffffffffffffffffff1673ffffffffffffffffffffffffffffffffffffffff1681526020016001820160149054906101000a900460f81b7effffffffffffffffffffffffffffffffffffffffffffffffffffffffffffff19167effffffffffffffffffffffffffffffffffffffffffffffffffffffffffffff191681525050925061086a8360000151610f05565b9150600060028111156108a6577f4e487b7100000000000000000000000000000000000000000000000000000000600052602160045260246000fd5b8260028111156108df577f4e487b7100000000000000000000000000000000000000000000000000000000600052602160045260246000fd5b1415610c775760006108f48460000151610f67565b9050610904846040015182610412565b915060016002811115610940577f4e487b7100000000000000000000000000000000000000000000000000000000600052602160045260246000fd5b826002811115610979577f4e487b7100000000000000000000000000000000000000000000000000000000600052602160045260246000fd5b1415610a36576109a184602001516611c37937e0800060045461099c919061175d565b610f8f565b945060006004819055507f8219079e2d6c1192fb0ff7f78e6faaf5528ad6687e69749205d87bd4b156912b86856020015187876040015185600060208110610a12577f4e487b7100000000000000000000000000000000000000000000000000000000600052603260045260246000fd5b1a60f81b8960000151604051610a2d9695949392919061161c565b60405180910390a15b60006002811115610a70577f4e487b7100000000000000000000000000000000000000000000000000000000600052602160045260246000fd5b826002811115610aa9577f4e487b7100000000000000000000000000000000000000000000000000000000600052602160045260246000fd5b1415610b5b576611c37937e0800060046000828254610ac8919061175d565b925050819055507f3b19d607433249d2ebc766ae82ca3848e9c064f1febb5147bc6e5b21d0adebc58685602001516000876040015185600060208110610b37577f4e487b7100000000000000000000000000000000000000000000000000000000600052603260045260246000fd5b1a60f81b8960000151604051610b52969594939291906115bb565b60405180910390a15b600280811115610b94577f4e487b7100000000000000000000000000000000000000000000000000000000600052602160045260246000fd5b826002811115610bcd577f4e487b7100000000000000000000000000000000000000000000000000000000600052602160045260246000fd5b1415610c7557610be884602001516611c37937e08000610f8f565b94507f72ec2e949e4fad9380f9d5db3e2ed0e71cf22c51d8d66424508bdc761a3f4b0e86856020015187876040015185600060208110610c51577f4e487b7100000000000000000000000000000000000000000000000000000000600052603260045260246000fd5b1a60f81b8960000151604051610c6c9695949392919061161c565b60405180910390a15b505b60016002811115610cb1577f4e487b7100000000000000000000000000000000000000000000000000000000600052602160045260246000fd5b826002811115610cea577f4e487b7100000000000000000000000000000000000000000000000000000000600052602160045260246000fd5b1415610cf557610ded565b600280811115610d2e577f4e487b7100000000000000000000000000000000000000000000000000000000600052602160045260246000fd5b826002811115610d67577f4e487b7100000000000000000000000000000000000000000000000000000000600052602160045260246000fd5b1415610dd057610d8283602001516611c37937e08000610f8f565b93507f59c0185881271a0f53d43e6ab9310091408f9e0ff9ae2512613de800f26b8de48584602001518686604001518760000151604051610dc795949392919061167d565b60405180910390a15b610dd985611061565b508480610de5906118e4565b955050610778565b846001819055505050505050565b60006611c37937e080003414610e46576040517f08c379a0000000000000000000000000000000000000000000000000000000008152600401610e3d90611560565b60405180910390fd5b610e4f826110c5565b610e8e576040517f08c379a0000000000000000000000000000000000000000000000000000000008152600401610e8590611580565b60405180910390fd5b3373ffffffffffffffffffffffffffffffffffffffff167f100791de9f40bf2d56ffa6dc5597d2fd0b2703ea70bc7548cd74c04f5d215ab76001600054610ed591906117b3565b3485600343610ee4919061175d565b604051610ef49493929190611707565b60405180910390a260019050919050565b60008143118015610f22575081610100610f1f919061175d565b43105b15610f305760009050610f62565b814311610f405760019050610f62565b61010082610f4e919061175d565b4310610f5d5760029050610f62565b600290505b919050565b6000600560009054906101000a900460ff16610f8557600654610f88565b81405b9050919050565b6000806000905060008184610fa491906117b3565b90508473ffffffffffffffffffffffffffffffffffffffff166108fc829081150290604051600060405180830381858888f19350505050158015610fec573d6000803e3d6000fd5b50600360009054906101000a900473ffffffffffffffffffffffffffffffffffffffff1673ffffffffffffffffffffffffffffffffffffffff166108fc839081150290604051600060405180830381858888f19350505050158015611055573d6000803e3d6000fd5b50809250505092915050565b6000600260008381526020019081526020016000206000808201600090556001820160006101000a81549073ffffffffffffffffffffffffffffffffffffffff02191690556001820160146101000a81549060ff0219169055505060019050919050565b60006110cf611218565b33816020019073ffffffffffffffffffffffffffffffffffffffff16908173ffffffffffffffffffffffffffffffffffffffff1681525050600343611114919061175d565b8160000181815250508281604001907effffffffffffffffffffffffffffffffffffffffffffffffffffffffffffff191690817effffffffffffffffffffffffffffffffffffffffffffffffffffffffffffff1916815250508060026000805481526020019081526020016000206000820151816000015560208201518160010160006101000a81548173ffffffffffffffffffffffffffffffffffffffff021916908373ffffffffffffffffffffffffffffffffffffffff16021790555060408201518160010160146101000a81548160ff021916908360f81c0217905550905050600080815480929190611209906118e4565b91905055506001915050919050565b604051806060016040528060008152602001600073ffffffffffffffffffffffffffffffffffffffff16815260200160007effffffffffffffffffffffffffffffffffffffffffffffffffffffffffffff191681525090565b6000813590506112808161199f565b92915050565b600081359050611295816119b6565b92915050565b6000813590506112aa816119cd565b92915050565b6000602082840312156112c257600080fd5b60006112d084828501611271565b91505092915050565b600080604083850312156112ec57600080fd5b60006112fa85828601611271565b925050602061130b85828601611286565b9150509250929050565b60006020828403121561132757600080fd5b600061133584828501611286565b91505092915050565b60006020828403121561135057600080fd5b600061135e8482850161129b565b91505092915050565b6113708161188a565b82525050565b61137f816117f9565b82525050565b61138e816117e7565b82525050565b61139d8161180b565b82525050565b6113ac81611817565b82525050565b6113bb81611843565b82525050565b6113ca8161189c565b82525050565b6113d9816118ae565b82525050565b60006113ec602b8361174c565b91507f4f6e6c79206f776e65722063616e207365742074686520616e7377657220666f60008301527f722074657374206d6f64650000000000000000000000000000000000000000006020830152604082019050919050565b6000611452600e8361174c565b91507f4e6f7420656e6f756768204554480000000000000000000000000000000000006000830152602082019050919050565b6000611492601a8361174c565b91507f4661696c20746f206164642061206e65772042657420496e666f0000000000006000830152602082019050919050565b6114ce81611880565b82525050565b60006020820190506114e96000830184611376565b92915050565b60006020820190506115046000830184611394565b92915050565b600060208201905061151f60008301846113b2565b92915050565b600060208201905061153a60008301846113c1565b92915050565b60006020820190508181036000830152611559816113df565b9050919050565b6000602082019050818103600083015261157981611445565b9050919050565b6000602082019050818103600083015261159981611485565b9050919050565b60006020820190506115b560008301846114c5565b92915050565b600060c0820190506115d060008301896114c5565b6115dd6020830188611367565b6115ea60408301876113d0565b6115f760608301866113a3565b61160460808301856113a3565b61161160a08301846114c5565b979650505050505050565b600060c08201905061163160008301896114c5565b61163e6020830188611367565b61164b60408301876114c5565b61165860608301866113a3565b61166560808301856113a3565b61167260a08301846114c5565b979650505050505050565b600060a08201905061169260008301886114c5565b61169f6020830187611367565b6116ac60408301866114c5565b6116b960608301856113a3565b6116c660808301846114c5565b9695505050505050565b60006060820190506116e560008301866114c5565b6116f26020830185611385565b6116ff60408301846113a3565b949350505050565b600060808201905061171c60008301876114c5565b61172960208301866114c5565b61173660408301856113a3565b61174360608301846114c5565b95945050505050565b600082825260208201905092915050565b600061176882611880565b915061177383611880565b9250827fffffffffffffffffffffffffffffffffffffffffffffffffffffffffffffffff038211156117a8576117a761192d565b5b828201905092915050565b60006117be82611880565b91506117c983611880565b9250828210156117dc576117db61192d565b5b828203905092915050565b60006117f282611860565b9050919050565b600061180482611860565b9050919050565b60008115159050919050565b60007fff0000000000000000000000000000000000000000000000000000000000000082169050919050565b6000819050919050565b600081905061185b8261198b565b919050565b600073ffffffffffffffffffffffffffffffffffffffff82169050919050565b6000819050919050565b6000611895826118c0565b9050919050565b60006118a78261184d565b9050919050565b60006118b982611880565b9050919050565b60006118cb826118d2565b9050919050565b60006118dd82611860565b9050919050565b60006118ef82611880565b91507fffffffffffffffffffffffffffffffffffffffffffffffffffffffffffffffff8214156119225761192161192d565b5b600182019050919050565b7f4e487b7100000000000000000000000000000000000000000000000000000000600052601160045260246000fd5b7f4e487b7100000000000000000000000000000000000000000000000000000000600052602160045260246000fd5b6003811061199c5761199b61195c565b5b50565b6119a881611817565b81146119b357600080fd5b50565b6119bf81611843565b81146119ca57600080fd5b50565b6119d681611880565b81146119e157600080fd5b5056fea2646970667358221220b30907457b1ee3f177e96449599ded13f94b392f03801634a4e541f93de89f8864736f6c63430008000033",
  "immutableReferences": {},
  "source": "// SPDX-License-Identifier: MIT\r\npragma solidity ^0.8.0;\r\n\r\n\r\ncontract Lottery {\r\n    struct BetInfo {\r\n        uint256 answerBlockNumber;\r\n        address payable bettor;\r\n        bytes1 challenges;\r\n    }\r\n    \r\n    uint256 private _tail;\r\n    uint256 private _head;\r\n    mapping (uint256 => BetInfo) private _bets;\r\n\r\n    address payable public owner;\r\n    \r\n    \r\n    uint256 private _pot;\r\n    bool private mode = false; // false : use answer for test , true : use real block hash\r\n    bytes32 public answerForTest;\r\n\r\n    uint256 constant internal BLOCK_LIMIT = 256;\r\n    uint256 constant internal BET_BLOCK_INTERVAL = 3;\r\n    uint256 constant internal BET_AMOUNT = 5 * 10 ** 15;\r\n\r\n    enum BlockStatus {Checkable, NotRevealed, BlockLimitPassed}\r\n    enum BettingResult {Fail, Win, Draw}\r\n\r\n    event BET(uint256 index, address indexed bettor, uint256 amount, bytes1 challenges, uint256 answerBlockNumber);\r\n    event WIN(uint256 index, address bettor, uint256 amount, bytes1 challenges, bytes1 answer, uint256 answerBlockNumber);\r\n    event FAIL(uint256 index, address bettor, uint256 amount, bytes1 challenges, bytes1 answer, uint256 answerBlockNumber);\r\n    event DRAW(uint256 index, address bettor, uint256 amount, bytes1 challenges, bytes1 answer, uint256 answerBlockNumber);\r\n    event REFUND(uint256 index, address bettor, uint256 amount, bytes1 challenges, uint256 answerBlockNumber);\r\n\r\n    constructor(){\r\n        owner = payable(msg.sender);\r\n    }\r\n\r\n    function getPot() public view returns (uint256 pot) {\r\n        return _pot;\r\n    }\r\n\r\n    /**\r\n     * @dev    .  0.005 ETH  ,  1 byte  .\r\n     *      distribute  .\r\n     * @param challenges   \r\n     *      bool \r\n     */\r\n    function betAndDistribute(bytes1 challenges) public payable returns (bool result) {\r\n        bet(challenges);\r\n\r\n        distribute();\r\n\r\n        return true;\r\n    }\r\n\r\n    // 90846 -> 75846\r\n    /**\r\n     * @dev  .  0.005 ETH  ,  1 byte  .\r\n     *      distribute  .\r\n     * @param challenges   \r\n      \r\n         bool \r\n     */\r\n    function bet(bytes1 challenges) public payable returns (bool result) {\r\n        // Check the proper ether is sent\r\n        require(msg.value == BET_AMOUNT, \"Not enough ETH\");\r\n\r\n        // Push bet to the queue\r\n        require(pushBet(challenges), \"Fail to add a new Bet Info\");\r\n\r\n        // Emit event\r\n        emit BET(_tail - 1, msg.sender, msg.value, challenges, block.number + BET_BLOCK_INTERVAL);\r\n\r\n        return true;\r\n    }\r\n\r\n    /**\r\n     * @dev      .\r\n     *   :  ,   :  ,   or    :   \r\n     */\r\n    function distribute() public {\r\n        // head 3 4 5 6 7 8 9 10 11 12 tail\r\n        uint256 cur;\r\n        uint256 transferAmount;\r\n\r\n        BetInfo memory b;\r\n        BlockStatus currentBlockStatus;\r\n        BettingResult currentBettingResult;\r\n\r\n        for(cur=_head;cur<_tail;cur++) {\r\n            b = _bets[cur];\r\n            currentBlockStatus = getBlockStatus(b.answerBlockNumber);\r\n            // Checkable : block.number > AnswerBlockNumber && block.number  <  BLOCK_LIMIT + AnswerBlockNumber 1\r\n            if(currentBlockStatus == BlockStatus.Checkable) {\r\n                bytes32 answerBlockHash = getAnswerBlockHash(b.answerBlockNumber);\r\n                currentBettingResult = isMatch(b.challenges, answerBlockHash);\r\n                // if win, bettor gets pot\r\n                if(currentBettingResult == BettingResult.Win) {\r\n                    // transfer pot\r\n                    transferAmount = transferAfterPayingFee(b.bettor, _pot + BET_AMOUNT);\r\n                    \r\n                    // pot = 0\r\n                    _pot = 0;\r\n\r\n                    // emit WIN\r\n                    emit WIN(cur, b.bettor, transferAmount, b.challenges, answerBlockHash[0], b.answerBlockNumber);\r\n                }\r\n                // if fail, bettor's money goes pot\r\n                if(currentBettingResult == BettingResult.Fail) {\r\n                    // pot = pot + BET_AMOUNT\r\n                    _pot += BET_AMOUNT;\r\n                    // emit FAIL\r\n                    emit FAIL(cur, b.bettor, 0, b.challenges, answerBlockHash[0], b.answerBlockNumber);\r\n                }\r\n                \r\n                // if draw, refund bettor's money \r\n                if(currentBettingResult == BettingResult.Draw) {\r\n                    // transfer only BET_AMOUNT\r\n                    transferAmount = transferAfterPayingFee(b.bettor, BET_AMOUNT);\r\n\r\n                    // emit DRAW\r\n                    emit DRAW(cur, b.bettor, transferAmount, b.challenges, answerBlockHash[0], b.answerBlockNumber);\r\n                }\r\n            }\r\n\r\n            // Not Revealed : block.number <= AnswerBlockNumber 2\r\n            if(currentBlockStatus == BlockStatus.NotRevealed) {\r\n                break;\r\n            }\r\n\r\n            // Block Limit Passed : block.number >= AnswerBlockNumber + BLOCK_LIMIT 3\r\n            if(currentBlockStatus == BlockStatus.BlockLimitPassed) {\r\n                // refund\r\n                transferAmount = transferAfterPayingFee(b.bettor, BET_AMOUNT);\r\n                // emit refund\r\n                emit REFUND(cur, b.bettor, transferAmount, b.challenges, b.answerBlockNumber);\r\n            }\r\n\r\n            popBet(cur);\r\n        }\r\n        _head = cur;\r\n    }\r\n\r\n    function transferAfterPayingFee(address payable addr, uint256 amount) internal returns (uint256) {\r\n        \r\n        // uint256 fee = amount / 100;\r\n        uint256 fee = 0;\r\n        uint256 amountWithoutFee = amount - fee;\r\n\r\n        // transfer to addr\r\n        addr.transfer(amountWithoutFee);\r\n\r\n        // transfer to owner\r\n        owner.transfer(fee);\r\n\r\n        return amountWithoutFee;\r\n    }\r\n\r\n    function setAnswerForTest(bytes32 answer) public returns (bool result) {\r\n        require(msg.sender == owner, \"Only owner can set the answer for test mode\");\r\n        answerForTest = answer;\r\n        return true;\r\n    }\r\n\r\n    function getAnswerBlockHash(uint256 answerBlockNumber) internal view returns (bytes32 answer) {\r\n        return mode ? blockhash(answerBlockNumber) : answerForTest;\r\n    }\r\n\r\n    /**\r\n     * @dev   .\r\n     * @param challenges  \r\n     * @param answer \r\n     * @return \r\n     */\r\n    function isMatch(bytes1 challenges, bytes32 answer) public pure returns (BettingResult) {\r\n        // challenges 0xab\r\n        // answer 0xab......ff 32 bytes\r\n\r\n        bytes1 c1 = challenges;\r\n        bytes1 c2 = challenges;\r\n\r\n        bytes1 a1 = answer[0];\r\n        bytes1 a2 = answer[0];\r\n\r\n        // Get first number\r\n        c1 = c1 >> 4; // 0xab -> 0x0a\r\n        c1 = c1 << 4; // 0x0a -> 0xa0\r\n\r\n        a1 = a1 >> 4;\r\n        a1 = a1 << 4;\r\n\r\n        // Get Second number\r\n        c2 = c2 << 4; // 0xab -> 0xb0\r\n        c2 = c2 >> 4; // 0xb0 -> 0x0b\r\n\r\n        a2 = a2 << 4;\r\n        a2 = a2 >> 4;\r\n\r\n        if(a1 == c1 && a2 == c2) {\r\n            return BettingResult.Win;\r\n        }\r\n\r\n        if(a1 == c1 || a2 == c2) {\r\n            return BettingResult.Draw;\r\n        }\r\n\r\n        return BettingResult.Fail;\r\n\r\n    }\r\n\r\n    function getBlockStatus(uint256 answerBlockNumber) internal view returns (BlockStatus) {\r\n        if(block.number > answerBlockNumber && block.number  <  BLOCK_LIMIT + answerBlockNumber) {\r\n            return BlockStatus.Checkable;\r\n        }\r\n\r\n        if(block.number <= answerBlockNumber) {\r\n            return BlockStatus.NotRevealed;\r\n        }\r\n\r\n        if(block.number >= answerBlockNumber + BLOCK_LIMIT) {\r\n            return BlockStatus.BlockLimitPassed;\r\n        }\r\n\r\n        return BlockStatus.BlockLimitPassed;\r\n    }\r\n    \r\n\r\n    function getBetInfo(uint256 index) public view returns (uint256 answerBlockNumber, address bettor, bytes1 challenges) {\r\n        BetInfo memory b = _bets[index];\r\n        answerBlockNumber = b.answerBlockNumber;\r\n        bettor = b.bettor;\r\n        challenges = b.challenges;\r\n    }\r\n\r\n    function pushBet(bytes1 challenges) internal returns (bool) {\r\n        BetInfo memory b;\r\n        b.bettor = payable(msg.sender); // 20 byte\r\n        b.answerBlockNumber = block.number + BET_BLOCK_INTERVAL; // 32byte  20000 gas\r\n        b.challenges = challenges; // byte // 20000 gas\r\n\r\n        _bets[_tail] = b;\r\n        _tail++; // 32byte   // 20000 gas -> 5000 gas\r\n\r\n        return true;\r\n    }\r\n\r\n    function popBet(uint256 index) internal returns (bool) {\r\n        delete _bets[index];\r\n        return true;\r\n    }\r\n}",
  "sourcePath": "C:/Users/holyh/code/projects_Dapp/lottery/lottery-smart-contract/contracts/Lottery.sol",
  "compiler": {
    "name": "solc",
    "version": "0.8.0+commit.c7dfd78e.Emscripten.clang"
  },
  "schemaVersion": "3.4.1",
  "updatedAt": "2021-08-06T08:33:51.756Z",
  "networkType": "ethereum",
  "devdoc": {
    "kind": "dev",
    "methods": {
      "bet(bytes1)": {
        "details": " .  0.005 ETH  ,  1 byte  .      distribute  .",
        "params": {
          "challenges": "       bool "
        }
      },
      "betAndDistribute(bytes1)": {
        "details": "   .  0.005 ETH  ,  1 byte  .      distribute  .",
        "params": {
          "challenges": "        bool "
        }
      },
      "distribute()": {
        "details": "     .   :  ,   :  ,   or    :   "
      },
      "isMatch(bytes1,bytes32)": {
        "details": "  .",
        "params": {
          "answer": "",
          "challenges": " "
        },
        "returns": {
          "_0": ""
        }
      }
    },
    "version": 1
  },
  "userdoc": {
    "kind": "user",
    "methods": {},
    "version": 1
  }
}